{"abi":[{"type":"constructor","inputs":[{"name":"_oracle","type":"address","internalType":"address"},{"name":"_judgeCommit","type":"address","internalType":"address"}],"stateMutability":"nonpayable"},{"type":"function","name":"CONSENSUS_THRESHOLD","inputs":[],"outputs":[{"name":"","type":"uint8","internalType":"uint8"}],"stateMutability":"view"},{"type":"function","name":"OUTLIER_THRESHOLD","inputs":[],"outputs":[{"name":"","type":"uint8","internalType":"uint8"}],"stateMutability":"view"},{"type":"function","name":"aggregateScores","inputs":[{"name":"entryId","type":"bytes32","internalType":"bytes32"},{"name":"challengeId","type":"bytes32","internalType":"bytes32"}],"outputs":[{"name":"finalScore","type":"uint8","internalType":"uint8"},{"name":"result","type":"uint8","internalType":"enum BoutsScoreAggregator.AggregationResult"}],"stateMutability":"nonpayable"},{"type":"function","name":"disputed","inputs":[{"name":"","type":"bytes32","internalType":"bytes32"}],"outputs":[{"name":"","type":"bool","internalType":"bool"}],"stateMutability":"view"},{"type":"function","name":"getFinalScore","inputs":[{"name":"entryId","type":"bytes32","internalType":"bytes32"}],"outputs":[{"name":"","type":"uint8","internalType":"uint8"}],"stateMutability":"view"},{"type":"function","name":"getRecord","inputs":[{"name":"entryId","type":"bytes32","internalType":"bytes32"}],"outputs":[{"name":"","type":"tuple","internalType":"struct BoutsScoreAggregator.AggregationRecord","components":[{"name":"finalScore","type":"uint8","internalType":"uint8"},{"name":"result","type":"uint8","internalType":"enum BoutsScoreAggregator.AggregationResult"},{"name":"claude","type":"uint8","internalType":"uint8"},{"name":"gpt4o","type":"uint8","internalType":"uint8"},{"name":"gemini","type":"uint8","internalType":"uint8"},{"name":"aggregatedAt","type":"uint256","internalType":"uint256"},{"name":"exists","type":"bool","internalType":"bool"}]}],"stateMutability":"view"},{"type":"function","name":"isDisputed","inputs":[{"name":"entryId","type":"bytes32","internalType":"bytes32"}],"outputs":[{"name":"","type":"bool","internalType":"bool"}],"stateMutability":"view"},{"type":"function","name":"judgeCommit","inputs":[],"outputs":[{"name":"","type":"address","internalType":"contract IBoutsJudgeCommit"}],"stateMutability":"view"},{"type":"function","name":"oracle","inputs":[],"outputs":[{"name":"","type":"address","internalType":"address"}],"stateMutability":"view"},{"type":"function","name":"records","inputs":[{"name":"","type":"bytes32","internalType":"bytes32"}],"outputs":[{"name":"finalScore","type":"uint8","internalType":"uint8"},{"name":"result","type":"uint8","internalType":"enum BoutsScoreAggregator.AggregationResult"},{"name":"claude","type":"uint8","internalType":"uint8"},{"name":"gpt4o","type":"uint8","internalType":"uint8"},{"name":"gemini","type":"uint8","internalType":"uint8"},{"name":"aggregatedAt","type":"uint256","internalType":"uint256"},{"name":"exists","type":"bool","internalType":"bool"}],"stateMutability":"view"},{"type":"function","name":"resolveDispute","inputs":[{"name":"entryId","type":"bytes32","internalType":"bytes32"},{"name":"finalScore","type":"uint8","internalType":"uint8"},{"name":"resolution","type":"string","internalType":"string"}],"outputs":[],"stateMutability":"nonpayable"},{"type":"function","name":"transferOracle","inputs":[{"name":"newOracle","type":"address","internalType":"address"}],"outputs":[],"stateMutability":"nonpayable"},{"type":"event","name":"DisputeFlagged","inputs":[{"name":"entryId","type":"bytes32","indexed":true,"internalType":"bytes32"},{"name":"challengeId","type":"bytes32","indexed":true,"internalType":"bytes32"},{"name":"claude","type":"uint8","indexed":false,"internalType":"uint8"},{"name":"gpt4o","type":"uint8","indexed":false,"internalType":"uint8"},{"name":"gemini","type":"uint8","indexed":false,"internalType":"uint8"}],"anonymous":false},{"type":"event","name":"DisputeResolved","inputs":[{"name":"entryId","type":"bytes32","indexed":true,"internalType":"bytes32"},{"name":"finalScore","type":"uint8","indexed":false,"internalType":"uint8"},{"name":"resolution","type":"string","indexed":false,"internalType":"string"}],"anonymous":false},{"type":"event","name":"OracleTransferred","inputs":[{"name":"previousOracle","type":"address","indexed":true,"internalType":"address"},{"name":"newOracle","type":"address","indexed":true,"internalType":"address"}],"anonymous":false},{"type":"event","name":"OutlierDiscarded","inputs":[{"name":"entryId","type":"bytes32","indexed":true,"internalType":"bytes32"},{"name":"provider","type":"string","indexed":false,"internalType":"string"},{"name":"outlierScore","type":"uint8","indexed":false,"internalType":"uint8"},{"name":"finalScore","type":"uint8","indexed":false,"internalType":"uint8"}],"anonymous":false},{"type":"event","name":"ScoreFinalized","inputs":[{"name":"entryId","type":"bytes32","indexed":true,"internalType":"bytes32"},{"name":"challengeId","type":"bytes32","indexed":true,"internalType":"bytes32"},{"name":"finalScore","type":"uint8","indexed":false,"internalType":"uint8"},{"name":"result","type":"uint8","indexed":false,"internalType":"enum BoutsScoreAggregator.AggregationResult"},{"name":"claude","type":"uint8","indexed":false,"internalType":"uint8"},{"name":"gpt4o","type":"uint8","indexed":false,"internalType":"uint8"},{"name":"gemini","type":"uint8","indexed":false,"internalType":"uint8"}],"anonymous":false},{"type":"error","name":"AlreadyAggregated","inputs":[]},{"type":"error","name":"InvalidScore","inputs":[]},{"type":"error","name":"NotDisputed","inputs":[]},{"type":"error","name":"OnlyOracle","inputs":[]},{"type":"error","name":"ScoresNotAllRevealed","inputs":[]},{"type":"error","name":"ZeroAddress","inputs":[]}],"bytecode":{"object":"0x608060405234801561000f575f80fd5b5060405161104e38038061104e83398101604081905261002e916100f6565b6001600160a01b0382166100555760405163d92e233d60e01b815260040160405180910390fd5b6001600160a01b03811661007c5760405163d92e233d60e01b815260040160405180910390fd5b5f80546001600160a01b03199081166001600160a01b03858116918217845560018054909316908516179091556040519091907f9b0948b943e24ff3413cb400b2eeae4337138739aaf31759dc6e813e8076fbc3908290a35050610127565b80516001600160a01b03811681146100f1575f80fd5b919050565b5f8060408385031215610107575f80fd5b610110836100db565b915061011e602084016100db565b90509250929050565b610f1a806101345f395ff3fe608060405234801561000f575f80fd5b50600436106100b1575f3560e01c80639296744c1161006e5780639296744c146101eb5780639706a5d614610205578063a12290eb14610227578063a3208ddf1461023a578063bca125f01461024f578063e732680614610257575f80fd5b806301e64725146100b5578063213681cd1461012c578063224f44d71461014c578063313043f01461017e5780637dc0d1d01461019f5780638504f9eb146101c9575b5f80fd5b6101106100c3366004610b37565b600260208190525f918252604090912080546001820154919092015460ff808416936101008104821693620100008204831693630100000083048416936401000000009093048316921687565b6040516101239796959493929190610b82565b60405180910390f35b61013f61013a366004610b37565b61026a565b6040516101239190610bcb565b61016e61015a366004610b37565b60036020525f908152604090205460ff1681565b6040519015158152602001610123565b61019161018c366004610c2d565b610347565b604051610123929190610c4d565b5f546101b1906001600160a01b031681565b6040516001600160a01b039091168152602001610123565b61016e6101d7366004610b37565b5f9081526003602052604090205460ff1690565b6101f3600f81565b60405160ff9091168152602001610123565b6101f3610213366004610b37565b5f9081526002602052604090205460ff1690565b6001546101b1906001600160a01b031681565b61024d610248366004610c75565b61074c565b005b6101f3600a81565b61024d610265366004610cf7565b610849565b6040805160e0810182525f80825260208201819052918101829052606081018290526080810182905260a0810182905260c08101919091525f82815260026020818152604092839020835160e08101909452805460ff8082168652919392850192610100909104909116908111156102e4576102e4610b4e565b60028111156102f5576102f5610b4e565b8152815460ff6201000082048116602084015263010000008204811660408401526401000000009091048116606083015260018301546080830152600290920154909116151560a09091015292915050565b5f805481906001600160a01b03163314610374576040516380fee10560e01b815260040160405180910390fd5b5f848152600260208190526040909120015460ff16156103a757604051636a1a183f60e01b815260040160405180910390fd5b600154604051634cab718360e01b8152600481018690525f918291829182916001600160a01b0390911690634cab718390602401608060405180830381865afa1580156103f6573d5f803e3d5ffd5b505050506040513d601f19601f8201168201806040525081019061041a9190610d1d565b93509350935093508061044057604051630445d59f60e51b815260040160405180910390fd5b61044b8484846108f3565b6040805160e0810190915260ff8316815291975095506020810186600281111561047757610477610b4e565b815260ff8087166020808401919091528682166040808501919091528683166060850152426080850152600160a0909401939093525f8c8152600280835293902084518154931660ff198416811782559185015190939092849261ffff1990911617906101009084908111156104ef576104ef610b4e565b0217905550604082015181546060840151608085015163ffff0000199092166201000060ff9485160263ff0000001916176301000000918416919091021764ff000000001916640100000000929091169190910217815560a0820151600182015560c0909101516002918201805460ff191691151591909117905585600281111561057c5761057c610b4e565b036105f6575f8881526003602052604090819020805460ff1916600117905551879089907fc863a390d4628c30c3c541acbb661755f93c8ed77cdf740d518907f077e2255a906105e99088908890889060ff93841681529183166020830152909116604082015260600190565b60405180910390a3610700565b600185600281111561060a5761060a610b4e565b036107005760605f8061061e878787610a35565b9050600f61062c8883610a76565b60ff16111561065e5760405180604001604052806006815260200165636c6175646560d01b81525092508691506106c0565b600f61066a8783610a76565b60ff16111561069b5760405180604001604052806005815260200164677074346f60d81b81525092508591506106c0565b6040518060400160405280600681526020016567656d696e6960d01b81525092508491505b8a7f9e457be34c3a109efdaa3213aa7667049d122019812f1c0ea62b89e9f993827084848c6040516106f493929190610d7d565b60405180910390a25050505b86887fa1633bb675ceb8825646c598ebe6cba62892361986e19eb55df88f98d602c32f8888888888604051610739959493929190610ddc565b60405180910390a3505050509250929050565b5f546001600160a01b03163314610776576040516380fee10560e01b815260040160405180910390fd5b5f8481526003602052604090205460ff166107a4576040516310cec38560e21b815260040160405180910390fd5b600a8360ff1610806107b9575060648360ff16115b156107d757604051631556136560e01b815260040160405180910390fd5b5f848152600360209081526040808320805460ff19908116909155600290925291829020805490911660ff86161790555184907f943443883f881d7d41f6d0a4e6e3840456fe07412091a99c4f477c609c3299f09061083b90869086908690610e18565b60405180910390a250505050565b5f546001600160a01b03163314610873576040516380fee10560e01b815260040160405180910390fd5b6001600160a01b03811661089a5760405163d92e233d60e01b815260040160405180910390fd5b5f80546040516001600160a01b03808516939216917f9b0948b943e24ff3413cb400b2eeae4337138739aaf31759dc6e813e8076fbc391a35f80546001600160a01b0319166001600160a01b0392909216919091179055565b5f805f610901868686610a35565b90505f61090f878787610aa6565b9050600a60ff821611610927575091505f9050610a2d565b5f600f6109348985610a76565b60ff161190505f600f6109478986610a76565b60ff161190505f600f61095a8987610a76565b60ff161190505f8161096c575f61096f565b60015b8361097a575f61097d565b60015b85610988575f61098b565b60015b6109959190610e64565b61099f9190610e64565b90508060ff16600103610a1f575f84156109d65760026109c560ff808d16908e16610e7d565b6109cf9190610e9f565b9050610a0d565b83156109ee5760026109c560ff808d16908f16610e7d565b6002610a0060ff808e16908f16610e7d565b610a0a9190610e9f565b90505b975060019650610a2d95505050505050565b5f6002975097505050505050505b935093915050565b5f8260ff168460ff161115610a48579192915b8160ff168360ff161115610a5a579091905b8260ff168460ff161115610a6c579192915b50815b9392505050565b5f8160ff168360ff1611610a9357610a8e8383610ecb565b610a9d565b610a9d8284610ecb565b90505b92915050565b5f808360ff168560ff1610610ace578260ff168460ff1610610ac85782610ae3565b83610ae3565b8260ff168560ff1610610ae15782610ae3565b845b90505f8460ff168660ff1611610b0c578360ff168560ff1611610b065783610b21565b84610b21565b8360ff168660ff1611610b1f5783610b21565b855b9050610b2d8282610ecb565b9695505050505050565b5f60208284031215610b47575f80fd5b5035919050565b634e487b7160e01b5f52602160045260245ffd5b60038110610b7e57634e487b7160e01b5f52602160045260245ffd5b9052565b60ff8816815260e08101610b996020830189610b62565b60ff9687166040830152948616606082015292909416608083015260a082015291151560c09092019190915292915050565b815160ff16815260208083015160e0830191610be990840182610b62565b5060ff604084015116604083015260ff606084015116606083015260ff608084015116608083015260a083015160a083015260c0830151151560c083015292915050565b5f8060408385031215610c3e575f80fd5b50508035926020909101359150565b60ff8316815260408101610a6f6020830184610b62565b60ff81168114610c72575f80fd5b50565b5f805f8060608587031215610c88575f80fd5b843593506020850135610c9a81610c64565b9250604085013567ffffffffffffffff80821115610cb6575f80fd5b818701915087601f830112610cc9575f80fd5b813581811115610cd7575f80fd5b886020828501011115610ce8575f80fd5b95989497505060200194505050565b5f60208284031215610d07575f80fd5b81356001600160a01b0381168114610a6f575f80fd5b5f805f8060808587031215610d30575f80fd5b8451610d3b81610c64565b6020860151909450610d4c81610c64565b6040860151909350610d5d81610c64565b60608601519092508015158114610d72575f80fd5b939692955090935050565b606081525f84518060608401525f5b81811015610da95760208188018101516080868401015201610d8c565b505f608082850101526080601f19601f83011684010191505060ff8416602083015260ff83166040830152949350505050565b60ff8616815260a08101610df36020830187610b62565b60ff8516604083015260ff8416606083015260ff831660808301529695505050505050565b60ff8416815260406020820152816040820152818360608301375f818301606090810191909152601f909201601f1916010192915050565b634e487b7160e01b5f52601160045260245ffd5b60ff8181168382160190811115610aa057610aa0610e50565b61ffff818116838216019080821115610e9857610e98610e50565b5092915050565b5f61ffff80841680610ebf57634e487b7160e01b5f52601260045260245ffd5b92169190910492915050565b60ff8281168282160390811115610aa057610aa0610e5056fea264697066735822122089ed4ec3e09263fc799db2e5ea9ec33a5ff7635adc2bde1431cb8fca4e9dd27264736f6c63430008180033","linkReferences":{}},"methodIdentifiers":{"CONSENSUS_THRESHOLD()":"bca125f0","OUTLIER_THRESHOLD()":"9296744c","aggregateScores(bytes32,bytes32)":"313043f0","disputed(bytes32)":"224f44d7","getFinalScore(bytes32)":"9706a5d6","getRecord(bytes32)":"213681cd","isDisputed(bytes32)":"8504f9eb","judgeCommit()":"a12290eb","oracle()":"7dc0d1d0","records(bytes32)":"01e64725","resolveDispute(bytes32,uint8,string)":"a3208ddf","transferOracle(address)":"e7326806"},"id":20}