{"abi":[{"type":"constructor","inputs":[{"name":"_oracle","type":"address","internalType":"address"}],"stateMutability":"nonpayable"},{"type":"function","name":"agentIdToTokenId","inputs":[{"name":"","type":"string","internalType":"string"}],"outputs":[{"name":"","type":"uint256","internalType":"uint256"}],"stateMutability":"view"},{"type":"function","name":"approve","inputs":[{"name":"","type":"address","internalType":"address"},{"name":"","type":"uint256","internalType":"uint256"}],"outputs":[],"stateMutability":"pure"},{"type":"function","name":"balanceOf","inputs":[{"name":"owner","type":"address","internalType":"address"}],"outputs":[{"name":"","type":"uint256","internalType":"uint256"}],"stateMutability":"view"},{"type":"function","name":"getProfile","inputs":[{"name":"tokenId","type":"uint256","internalType":"uint256"}],"outputs":[{"name":"","type":"tuple","internalType":"struct BoutsAgentSBT.AgentProfile","components":[{"name":"agentId","type":"string","internalType":"string"},{"name":"weightClass","type":"string","internalType":"string"},{"name":"owner","type":"address","internalType":"address"},{"name":"eloRating","type":"uint16","internalType":"uint16"},{"name":"eloPeak","type":"uint16","internalType":"uint16"},{"name":"challengesPlayed","type":"uint32","internalType":"uint32"},{"name":"wins","type":"uint32","internalType":"uint32"},{"name":"losses","type":"uint32","internalType":"uint32"},{"name":"mintedAt","type":"uint256","internalType":"uint256"},{"name":"lastEloCommit","type":"bytes32","internalType":"bytes32"}]}],"stateMutability":"view"},{"type":"function","name":"getProfileByAgentId","inputs":[{"name":"agentId","type":"string","internalType":"string"}],"outputs":[{"name":"","type":"tuple","internalType":"struct BoutsAgentSBT.AgentProfile","components":[{"name":"agentId","type":"string","internalType":"string"},{"name":"weightClass","type":"string","internalType":"string"},{"name":"owner","type":"address","internalType":"address"},{"name":"eloRating","type":"uint16","internalType":"uint16"},{"name":"eloPeak","type":"uint16","internalType":"uint16"},{"name":"challengesPlayed","type":"uint32","internalType":"uint32"},{"name":"wins","type":"uint32","internalType":"uint32"},{"name":"losses","type":"uint32","internalType":"uint32"},{"name":"mintedAt","type":"uint256","internalType":"uint256"},{"name":"lastEloCommit","type":"bytes32","internalType":"bytes32"}]},{"name":"tokenId","type":"uint256","internalType":"uint256"}],"stateMutability":"view"},{"type":"function","name":"isMinted","inputs":[{"name":"agentId","type":"string","internalType":"string"}],"outputs":[{"name":"","type":"bool","internalType":"bool"}],"stateMutability":"view"},{"type":"function","name":"locked","inputs":[{"name":"tokenId","type":"uint256","internalType":"uint256"}],"outputs":[{"name":"","type":"bool","internalType":"bool"}],"stateMutability":"view"},{"type":"function","name":"mint","inputs":[{"name":"to","type":"address","internalType":"address"},{"name":"agentId","type":"string","internalType":"string"},{"name":"weightClass","type":"string","internalType":"string"}],"outputs":[{"name":"tokenId","type":"uint256","internalType":"uint256"}],"stateMutability":"nonpayable"},{"type":"function","name":"name","inputs":[],"outputs":[{"name":"","type":"string","internalType":"string"}],"stateMutability":"view"},{"type":"function","name":"oracle","inputs":[],"outputs":[{"name":"","type":"address","internalType":"address"}],"stateMutability":"view"},{"type":"function","name":"ownerOf","inputs":[{"name":"tokenId","type":"uint256","internalType":"uint256"}],"outputs":[{"name":"","type":"address","internalType":"address"}],"stateMutability":"view"},{"type":"function","name":"safeTransferFrom","inputs":[{"name":"","type":"address","internalType":"address"},{"name":"","type":"address","internalType":"address"},{"name":"","type":"uint256","internalType":"uint256"}],"outputs":[],"stateMutability":"pure"},{"type":"function","name":"safeTransferFrom","inputs":[{"name":"","type":"address","internalType":"address"},{"name":"","type":"address","internalType":"address"},{"name":"","type":"uint256","internalType":"uint256"},{"name":"","type":"bytes","internalType":"bytes"}],"outputs":[],"stateMutability":"pure"},{"type":"function","name":"setApprovalForAll","inputs":[{"name":"","type":"address","internalType":"address"},{"name":"","type":"bool","internalType":"bool"}],"outputs":[],"stateMutability":"pure"},{"type":"function","name":"supportsInterface","inputs":[{"name":"interfaceId","type":"bytes4","internalType":"bytes4"}],"outputs":[{"name":"","type":"bool","internalType":"bool"}],"stateMutability":"pure"},{"type":"function","name":"symbol","inputs":[],"outputs":[{"name":"","type":"string","internalType":"string"}],"stateMutability":"view"},{"type":"function","name":"totalSupply","inputs":[],"outputs":[{"name":"","type":"uint256","internalType":"uint256"}],"stateMutability":"view"},{"type":"function","name":"transferFrom","inputs":[{"name":"","type":"address","internalType":"address"},{"name":"","type":"address","internalType":"address"},{"name":"","type":"uint256","internalType":"uint256"}],"outputs":[],"stateMutability":"pure"},{"type":"function","name":"transferOracle","inputs":[{"name":"newOracle","type":"address","internalType":"address"}],"outputs":[],"stateMutability":"nonpayable"},{"type":"function","name":"updateRating","inputs":[{"name":"tokenId","type":"uint256","internalType":"uint256"},{"name":"newElo","type":"uint16","internalType":"uint16"},{"name":"wins","type":"uint32","internalType":"uint32"},{"name":"losses","type":"uint32","internalType":"uint32"},{"name":"played","type":"uint32","internalType":"uint32"},{"name":"commitmentHash","type":"bytes32","internalType":"bytes32"}],"outputs":[],"stateMutability":"nonpayable"},{"type":"function","name":"updateWeightClass","inputs":[{"name":"tokenId","type":"uint256","internalType":"uint256"},{"name":"newWeightClass","type":"string","internalType":"string"}],"outputs":[],"stateMutability":"nonpayable"},{"type":"event","name":"AgentMinted","inputs":[{"name":"tokenId","type":"uint256","indexed":true,"internalType":"uint256"},{"name":"agentId","type":"string","indexed":false,"internalType":"string"},{"name":"owner","type":"address","indexed":true,"internalType":"address"},{"name":"weightClass","type":"string","indexed":false,"internalType":"string"}],"anonymous":false},{"type":"event","name":"Locked","inputs":[{"name":"tokenId","type":"uint256","indexed":false,"internalType":"uint256"}],"anonymous":false},{"type":"event","name":"OracleTransferred","inputs":[{"name":"previousOracle","type":"address","indexed":true,"internalType":"address"},{"name":"newOracle","type":"address","indexed":true,"internalType":"address"}],"anonymous":false},{"type":"event","name":"RatingUpdated","inputs":[{"name":"tokenId","type":"uint256","indexed":true,"internalType":"uint256"},{"name":"previousElo","type":"uint16","indexed":false,"internalType":"uint16"},{"name":"newElo","type":"uint16","indexed":false,"internalType":"uint16"},{"name":"commitmentHash","type":"bytes32","indexed":false,"internalType":"bytes32"}],"anonymous":false},{"type":"event","name":"Transfer","inputs":[{"name":"from","type":"address","indexed":true,"internalType":"address"},{"name":"to","type":"address","indexed":true,"internalType":"address"},{"name":"tokenId","type":"uint256","indexed":true,"internalType":"uint256"}],"anonymous":false},{"type":"error","name":"AgentAlreadyMinted","inputs":[]},{"type":"error","name":"EmptyAgentId","inputs":[]},{"type":"error","name":"InvalidElo","inputs":[]},{"type":"error","name":"OnlyOracle","inputs":[]},{"type":"error","name":"Soulbound","inputs":[]},{"type":"error","name":"TokenNotFound","inputs":[]},{"type":"error","name":"ZeroAddress","inputs":[]}],"bytecode":{"object":"0x608060405234801561000f575f80fd5b5060405161182f38038061182f83398101604081905261002e916100a2565b6001600160a01b0381166100555760405163d92e233d60e01b815260040160405180910390fd5b5f80546001600160a01b0319166001600160a01b03831690811782556040519091907f9b0948b943e24ff3413cb400b2eeae4337138739aaf31759dc6e813e8076fbc3908290a3506100cf565b5f602082840312156100b2575f80fd5b81516001600160a01b03811681146100c8575f80fd5b9392505050565b611753806100dc5f395ff3fe608060405234801561000f575f80fd5b5060043610610132575f3560e01c806370a08231116100b4578063990711901161007957806399071190146102c3578063a22cb465146102d6578063b45a3c0e146102e4578063b88d4fde146102f7578063e732680614610305578063f08f4f6414610318575f80fd5b806370a082311461024657806378df01da146102595780637dc0d1d01461026c578063878360ac1461027e57806395d89b411461029f575f80fd5b806337a34a76116100fa57806337a34a76146101ca57806342842e0e146101bc57806344131a93146101dd5780636352211e1461020857806367ad98da14610233575f80fd5b806301ffc9a71461013657806306fdde031461015e578063095ea7b31461019557806318160ddd146101aa57806323b872dd146101bc575b5f80fd5b610149610144366004610f44565b610338565b60405190151581526020015b60405180910390f35b6101886040518060400160405280600b81526020016a109bdd5d1cc81059d95b9d60aa1b81525081565b6040516101559190610fb5565b6101a86101a3366004610fe2565b610389565b005b6001545b604051908152602001610155565b6101a86101a336600461100a565b6101a86101d8366004611081565b6103a2565b6101ae6101eb3660046110dd565b805160208183018101805160038252928201919093012091525481565b61021b610216366004611188565b610421565b6040516001600160a01b039091168152602001610155565b61014961024136600461119f565b610456565b6101ae6102543660046111de565b610482565b6101a861026736600461120a565b6104c5565b5f5461021b906001600160a01b031681565b61029161028c36600461119f565b610669565b604051610155929190611353565b61018860405180604001604052806005815260200164424f55545360d81b81525081565b6101ae6102d1366004611374565b610875565b6101a86101a33660046113ef565b6101496102f2366004611188565b610c1c565b6101a86101a3366004611428565b6101a86103133660046111de565b610c58565b61032b610326366004611188565b610d02565b6040516101559190611481565b5f6301ffc9a760e01b6001600160e01b03198316148061036857506380ac58cd60e01b6001600160e01b03198316145b806103835750635a2d1e0760e11b6001600160e01b03198316145b92915050565b60405163a4420a9560e01b815260040160405180910390fd5b5f546001600160a01b031633146103cc576040516380fee10560e01b815260040160405180910390fd5b5f838152600460205260409020546001600160a01b031661040057604051630cbdb7b360e41b815260040160405180910390fd5b5f83815260026020526040902060010161041b828483611517565b50505050565b5f818152600460205260408120546001600160a01b03168061038357604051630cbdb7b360e41b815260040160405180910390fd5b5f600383836040516104699291906115d1565b9081526040519081900360200190205415159392505050565b5f6001600160a01b0382166104aa5760405163d92e233d60e01b815260040160405180910390fd5b506001600160a01b03165f9081526005602052604090205490565b5f546001600160a01b031633146104ef576040516380fee10560e01b815260040160405180910390fd5b5f868152600460205260409020546001600160a01b031661052357604051630cbdb7b360e41b815260040160405180910390fd5b6101908561ffff16108061053c5750610fa08561ffff16115b1561055a57604051637990385b60e11b815260040160405180910390fd5b5f868152600260208190526040909120908101805460038301805463ffffffff191663ffffffff88811691909117909155600167ffffffffffff000160a01b038216600160a01b61ffff8b81168281026001600160e01b031693909317600160e01b8c8616021763ffffffff60c01b1916600160c01b948a1694909402939093179485905560058601879055909204811692600160b01b90041610156106175760028201805461ffff60b01b1916600160b01b61ffff8a16021790555b6040805161ffff80841682528916602082015290810184905288907f385677e806596e3b54d3e8ddcf96d215299649ab329e6e7443f200e19f3c9fa89060600160405180910390a25050505050505050565b610671610ef1565b5f600384846040516106849291906115d1565b9081526020016040518091039020549050805f036106b557604051630cbdb7b360e41b815260040160405180910390fd5b60025f8281526020019081526020015f208181604051806101400160405290815f820180546106e390611493565b80601f016020809104026020016040519081016040528092919081815260200182805461070f90611493565b801561075a5780601f106107315761010080835404028352916020019161075a565b820191905f5260205f20905b81548152906001019060200180831161073d57829003601f168201915b5050505050815260200160018201805461077390611493565b80601f016020809104026020016040519081016040528092919081815260200182805461079f90611493565b80156107ea5780601f106107c1576101008083540402835291602001916107ea565b820191905f5260205f20905b8154815290600101906020018083116107cd57829003601f168201915b505050918352505060028201546001600160a01b038116602083015261ffff600160a01b820481166040840152600160b01b820416606083015263ffffffff600160c01b820481166080840152600160e01b909104811660a083015260038301541660c0820152600482015460e08201526005909101546101009091015293509150505b9250929050565b5f80546001600160a01b031633146108a0576040516380fee10560e01b815260040160405180910390fd5b6001600160a01b0386166108c75760405163d92e233d60e01b815260040160405180910390fd5b5f8490036108e857604051633f7f02e960e01b815260040160405180910390fd5b600385856040516108fa9291906115d1565b9081526020016040518091039020545f146109285760405163cc075f6760e01b815260040160405180910390fd5b60018054905f610937836115e0565b90915550506001545f81815260046020908152604080832080546001600160a01b0319166001600160a01b038c16908117909155835260059091528120805492935090610983836115e0565b9190505550806003868660405161099b9291906115d1565b90815260200160405180910390208190555060405180610140016040528086868080601f0160208091040260200160405190810160405280939291908181526020018383808284375f92019190915250505090825250604080516020601f8701819004810282018101909252858152918101919086908690819084018382808284375f9201829052509385525050506001600160a01b0389166020808401919091526104b0604080850182905260608501919091526001608085015260a0840183905260c084018390524260e0850152610100909301829052848252600290522081518190610a8a9082611604565b5060208201516001820190610a9f9082611604565b506040828101516002830180546060860151608087015160a088015160c08901516001600160a01b039687166001600160b01b031990951694909417600160a01b61ffff948516021765ffffffffffff60b01b1916600160b01b939092169290920263ffffffff60c01b191617600160c01b63ffffffff92831602176001600160e01b0316600160e01b928216929092029190911790915560e085015160038501805463ffffffff1916919092161790556101008401516004840155610120909301516005909201919091555182918816905f907fddf252ad1be2c89b69c2b068fc378daa952ba7f163c4a11628f55a4df523b3ef908290a46040518181527f032bc66be43dbccb7487781d168eb7bda224628a3b2c3388bdf69b532a3a16119060200160405180910390a1856001600160a01b0316817f9b341290cf158c16d108a103f6ac39289ba5bb947759976abfcd11fd182fa63087878787604051610c0b94939291906116ec565b60405180910390a395945050505050565b5f818152600460205260408120546001600160a01b0316610c5057604051630cbdb7b360e41b815260040160405180910390fd5b506001919050565b5f546001600160a01b03163314610c82576040516380fee10560e01b815260040160405180910390fd5b6001600160a01b038116610ca95760405163d92e233d60e01b815260040160405180910390fd5b5f80546040516001600160a01b03808516939216917f9b0948b943e24ff3413cb400b2eeae4337138739aaf31759dc6e813e8076fbc391a35f80546001600160a01b0319166001600160a01b0392909216919091179055565b610d0a610ef1565b5f828152600460205260409020546001600160a01b0316610d3e57604051630cbdb7b360e41b815260040160405180910390fd5b5f828152600260205260409081902081516101408101909252805482908290610d6690611493565b80601f0160208091040260200160405190810160405280929190818152602001828054610d9290611493565b8015610ddd5780601f10610db457610100808354040283529160200191610ddd565b820191905f5260205f20905b815481529060010190602001808311610dc057829003601f168201915b50505050508152602001600182018054610df690611493565b80601f0160208091040260200160405190810160405280929190818152602001828054610e2290611493565b8015610e6d5780601f10610e4457610100808354040283529160200191610e6d565b820191905f5260205f20905b815481529060010190602001808311610e5057829003601f168201915b505050918352505060028201546001600160a01b038116602083015261ffff600160a01b820481166040840152600160b01b820416606083015263ffffffff600160c01b820481166080840152600160e01b909104811660a083015260038301541660c0820152600482015460e08201526005909101546101009091015292915050565b60408051610140810182526060808252602082018190525f92820183905281018290526080810182905260a0810182905260c0810182905260e08101829052610100810182905261012081019190915290565b5f60208284031215610f54575f80fd5b81356001600160e01b031981168114610f6b575f80fd5b9392505050565b5f81518084525f5b81811015610f9657602081850181015186830182015201610f7a565b505f602082860101526020601f19601f83011685010191505092915050565b602081525f610f6b6020830184610f72565b80356001600160a01b0381168114610fdd575f80fd5b919050565b5f8060408385031215610ff3575f80fd5b610ffc83610fc7565b946020939093013593505050565b5f805f6060848603121561101c575f80fd5b61102584610fc7565b925061103360208501610fc7565b9150604084013590509250925092565b5f8083601f840112611053575f80fd5b50813567ffffffffffffffff81111561106a575f80fd5b60208301915083602082850101111561086e575f80fd5b5f805f60408486031215611093575f80fd5b83359250602084013567ffffffffffffffff8111156110b0575f80fd5b6110bc86828701611043565b9497909650939450505050565b634e487b7160e01b5f52604160045260245ffd5b5f602082840312156110ed575f80fd5b813567ffffffffffffffff80821115611104575f80fd5b818401915084601f830112611117575f80fd5b813581811115611129576111296110c9565b604051601f8201601f19908116603f01168101908382118183101715611151576111516110c9565b81604052828152876020848701011115611169575f80fd5b826020860160208301375f928101602001929092525095945050505050565b5f60208284031215611198575f80fd5b5035919050565b5f80602083850312156111b0575f80fd5b823567ffffffffffffffff8111156111c6575f80fd5b6111d285828601611043565b90969095509350505050565b5f602082840312156111ee575f80fd5b610f6b82610fc7565b803563ffffffff81168114610fdd575f80fd5b5f805f805f8060c0878903121561121f575f80fd5b86359550602087013561ffff81168114611237575f80fd5b9450611245604088016111f7565b9350611253606088016111f7565b9250611261608088016111f7565b915060a087013590509295509295509295565b5f610140825181855261128982860182610f72565b915050602083015184820360208601526112a38282610f72565b91505060408301516112c060408601826001600160a01b03169052565b5060608301516112d6606086018261ffff169052565b5060808301516112ec608086018261ffff169052565b5060a083015161130460a086018263ffffffff169052565b5060c083015161131c60c086018263ffffffff169052565b5060e083015161133460e086018263ffffffff169052565b5061010083810151908501526101209283015192909301919091525090565b604081525f6113656040830185611274565b90508260208301529392505050565b5f805f805f60608688031215611388575f80fd5b61139186610fc7565b9450602086013567ffffffffffffffff808211156113ad575f80fd5b6113b989838a01611043565b909650945060408801359150808211156113d1575f80fd5b506113de88828901611043565b969995985093965092949392505050565b5f8060408385031215611400575f80fd5b61140983610fc7565b91506020830135801515811461141d575f80fd5b809150509250929050565b5f805f805f6080868803121561143c575f80fd5b61144586610fc7565b945061145360208701610fc7565b935060408601359250606086013567ffffffffffffffff811115611475575f80fd5b6113de88828901611043565b602081525f610f6b6020830184611274565b600181811c908216806114a757607f821691505b6020821081036114c557634e487b7160e01b5f52602260045260245ffd5b50919050565b601f82111561151257805f5260205f20601f840160051c810160208510156114f05750805b601f840160051c820191505b8181101561150f575f81556001016114fc565b50505b505050565b67ffffffffffffffff83111561152f5761152f6110c9565b6115438361153d8354611493565b836114cb565b5f601f841160018114611574575f851561155d5750838201355b5f19600387901b1c1916600186901b17835561150f565b5f83815260208120601f198716915b828110156115a35786850135825560209485019460019092019101611583565b50868210156115bf575f1960f88860031b161c19848701351681555b505060018560011b0183555050505050565b818382375f9101908152919050565b5f600182016115fd57634e487b7160e01b5f52601160045260245ffd5b5060010190565b815167ffffffffffffffff81111561161e5761161e6110c9565b6116328161162c8454611493565b846114cb565b602080601f831160018114611665575f841561164e5750858301515b5f19600386901b1c1916600185901b1785556116bc565b5f85815260208120601f198616915b8281101561169357888601518255948401946001909101908401611674565b50858210156116b057878501515f19600388901b60f8161c191681555b505060018460011b0185555b505050505050565b81835281816020850137505f828201602090810191909152601f909101601f19169091010190565b604081525f6116ff6040830186886116c4565b82810360208401526117128185876116c4565b97965050505050505056fea26469706673582212205e545e0dcb30eb05c783bb839532e13b2d15922ed7f830322016a0cbddf9d4fb64736f6c63430008180033","linkReferences":{}},"methodIdentifiers":{"agentIdToTokenId(string)":"44131a93","approve(address,uint256)":"095ea7b3","balanceOf(address)":"70a08231","getProfile(uint256)":"f08f4f64","getProfileByAgentId(string)":"878360ac","isMinted(string)":"67ad98da","locked(uint256)":"b45a3c0e","mint(address,string,string)":"99071190","name()":"06fdde03","oracle()":"7dc0d1d0","ownerOf(uint256)":"6352211e","safeTransferFrom(address,address,uint256)":"42842e0e","safeTransferFrom(address,address,uint256,bytes)":"b88d4fde","setApprovalForAll(address,bool)":"a22cb465","supportsInterface(bytes4)":"01ffc9a7","symbol()":"95d89b41","totalSupply()":"18160ddd","transferFrom(address,address,uint256)":"23b872dd","transferOracle(address)":"e7326806","updateRating(uint256,uint16,uint32,uint32,uint32,bytes32)":"78df01da","updateWeightClass(uint256,string)":"37a34a76"},"id":19}