{"abi":[{"type":"constructor","inputs":[{"name":"_oracle","type":"address","internalType":"address"}],"stateMutability":"nonpayable"},{"type":"function","name":"BPS_DENOMINATOR","inputs":[],"outputs":[{"name":"","type":"uint256","internalType":"uint256"}],"stateMutability":"view"},{"type":"function","name":"MAX_POOL_USDC","inputs":[],"outputs":[{"name":"","type":"uint256","internalType":"uint256"}],"stateMutability":"view"},{"type":"function","name":"MIN_ENTRIES","inputs":[],"outputs":[{"name":"","type":"uint256","internalType":"uint256"}],"stateMutability":"view"},{"type":"function","name":"PLATFORM_FEE_BPS","inputs":[],"outputs":[{"name":"","type":"uint256","internalType":"uint256"}],"stateMutability":"view"},{"type":"function","name":"USDC","inputs":[],"outputs":[{"name":"","type":"address","internalType":"address"}],"stateMutability":"view"},{"type":"function","name":"cancelChallenge","inputs":[{"name":"challengeId","type":"bytes32","internalType":"bytes32"}],"outputs":[],"stateMutability":"nonpayable"},{"type":"function","name":"challengeEntries","inputs":[{"name":"","type":"bytes32","internalType":"bytes32"},{"name":"","type":"uint256","internalType":"uint256"}],"outputs":[{"name":"","type":"bytes32","internalType":"bytes32"}],"stateMutability":"view"},{"type":"function","name":"challenges","inputs":[{"name":"","type":"bytes32","internalType":"bytes32"}],"outputs":[{"name":"entryFee","type":"uint256","internalType":"uint256"},{"name":"maxPool","type":"uint256","internalType":"uint256"},{"name":"totalPool","type":"uint256","internalType":"uint256"},{"name":"endTime","type":"uint256","internalType":"uint256"},{"name":"state","type":"uint8","internalType":"enum BoutsEscrow.ChallengeState"},{"name":"entryCount","type":"uint32","internalType":"uint32"},{"name":"exists","type":"bool","internalType":"bool"}],"stateMutability":"view"},{"type":"function","name":"claimPrize","inputs":[{"name":"entryId","type":"bytes32","internalType":"bytes32"}],"outputs":[],"stateMutability":"nonpayable"},{"type":"function","name":"claimRefund","inputs":[{"name":"entryId","type":"bytes32","internalType":"bytes32"}],"outputs":[],"stateMutability":"nonpayable"},{"type":"function","name":"closeEntries","inputs":[{"name":"challengeId","type":"bytes32","internalType":"bytes32"}],"outputs":[],"stateMutability":"nonpayable"},{"type":"function","name":"commitComposite","inputs":[{"name":"entryId","type":"bytes32","internalType":"bytes32"},{"name":"challengeId","type":"bytes32","internalType":"bytes32"},{"name":"commitment","type":"bytes32","internalType":"bytes32"}],"outputs":[],"stateMutability":"nonpayable"},{"type":"function","name":"compositeCommitments","inputs":[{"name":"","type":"bytes32","internalType":"bytes32"}],"outputs":[{"name":"","type":"bytes32","internalType":"bytes32"}],"stateMutability":"view"},{"type":"function","name":"createChallenge","inputs":[{"name":"challengeId","type":"bytes32","internalType":"bytes32"},{"name":"entryFee","type":"uint256","internalType":"uint256"},{"name":"endTime","type":"uint256","internalType":"uint256"},{"name":"payoutBps","type":"uint16[3]","internalType":"uint16[3]"}],"outputs":[],"stateMutability":"nonpayable"},{"type":"function","name":"disqualifyEntry","inputs":[{"name":"entryId","type":"bytes32","internalType":"bytes32"}],"outputs":[],"stateMutability":"nonpayable"},{"type":"function","name":"entries","inputs":[{"name":"","type":"bytes32","internalType":"bytes32"}],"outputs":[{"name":"entryId","type":"bytes32","internalType":"bytes32"},{"name":"challengeId","type":"bytes32","internalType":"bytes32"},{"name":"payer","type":"address","internalType":"address"},{"name":"compositeScore","type":"uint8","internalType":"uint8"},{"name":"placement","type":"uint8","internalType":"uint8"},{"name":"prizeAmount","type":"uint256","internalType":"uint256"},{"name":"paid","type":"bool","internalType":"bool"},{"name":"claimed","type":"bool","internalType":"bool"},{"name":"scoreCommitted","type":"bool","internalType":"bool"},{"name":"scoreRevealed","type":"bool","internalType":"bool"},{"name":"disqualified","type":"bool","internalType":"bool"}],"stateMutability":"view"},{"type":"function","name":"finalizeChallenge","inputs":[{"name":"challengeId","type":"bytes32","internalType":"bytes32"},{"name":"rankedEntries","type":"bytes32[]","internalType":"bytes32[]"}],"outputs":[],"stateMutability":"nonpayable"},{"type":"function","name":"getChallenge","inputs":[{"name":"challengeId","type":"bytes32","internalType":"bytes32"}],"outputs":[{"name":"","type":"tuple","internalType":"struct BoutsEscrow.Challenge","components":[{"name":"entryFee","type":"uint256","internalType":"uint256"},{"name":"maxPool","type":"uint256","internalType":"uint256"},{"name":"totalPool","type":"uint256","internalType":"uint256"},{"name":"endTime","type":"uint256","internalType":"uint256"},{"name":"payoutBps","type":"uint16[3]","internalType":"uint16[3]"},{"name":"state","type":"uint8","internalType":"enum BoutsEscrow.ChallengeState"},{"name":"entryCount","type":"uint32","internalType":"uint32"},{"name":"exists","type":"bool","internalType":"bool"}]}],"stateMutability":"view"},{"type":"function","name":"getChallengeEntries","inputs":[{"name":"challengeId","type":"bytes32","internalType":"bytes32"}],"outputs":[{"name":"","type":"bytes32[]","internalType":"bytes32[]"}],"stateMutability":"view"},{"type":"function","name":"getCompositeScore","inputs":[{"name":"entryId","type":"bytes32","internalType":"bytes32"}],"outputs":[{"name":"","type":"uint8","internalType":"uint8"}],"stateMutability":"view"},{"type":"function","name":"getEntry","inputs":[{"name":"entryId","type":"bytes32","internalType":"bytes32"}],"outputs":[{"name":"","type":"tuple","internalType":"struct BoutsEscrow.Entry","components":[{"name":"entryId","type":"bytes32","internalType":"bytes32"},{"name":"challengeId","type":"bytes32","internalType":"bytes32"},{"name":"payer","type":"address","internalType":"address"},{"name":"compositeScore","type":"uint8","internalType":"uint8"},{"name":"placement","type":"uint8","internalType":"uint8"},{"name":"prizeAmount","type":"uint256","internalType":"uint256"},{"name":"paid","type":"bool","internalType":"bool"},{"name":"claimed","type":"bool","internalType":"bool"},{"name":"scoreCommitted","type":"bool","internalType":"bool"},{"name":"scoreRevealed","type":"bool","internalType":"bool"},{"name":"disqualified","type":"bool","internalType":"bool"}]}],"stateMutability":"view"},{"type":"function","name":"oracle","inputs":[],"outputs":[{"name":"","type":"address","internalType":"address"}],"stateMutability":"view"},{"type":"function","name":"owner","inputs":[],"outputs":[{"name":"","type":"address","internalType":"address"}],"stateMutability":"view"},{"type":"function","name":"pause","inputs":[],"outputs":[],"stateMutability":"nonpayable"},{"type":"function","name":"paused","inputs":[],"outputs":[{"name":"","type":"bool","internalType":"bool"}],"stateMutability":"view"},{"type":"function","name":"payEntry","inputs":[{"name":"challengeId","type":"bytes32","internalType":"bytes32"},{"name":"entryId","type":"bytes32","internalType":"bytes32"}],"outputs":[],"stateMutability":"nonpayable"},{"type":"function","name":"platformFeeBalance","inputs":[],"outputs":[{"name":"","type":"uint256","internalType":"uint256"}],"stateMutability":"view"},{"type":"function","name":"revealComposite","inputs":[{"name":"entryId","type":"bytes32","internalType":"bytes32"},{"name":"compositeScore","type":"uint8","internalType":"uint8"},{"name":"salt","type":"bytes32","internalType":"bytes32"}],"outputs":[],"stateMutability":"nonpayable"},{"type":"function","name":"transferOracle","inputs":[{"name":"newOracle","type":"address","internalType":"address"}],"outputs":[],"stateMutability":"nonpayable"},{"type":"function","name":"transferOwner","inputs":[{"name":"newOwner","type":"address","internalType":"address"}],"outputs":[],"stateMutability":"nonpayable"},{"type":"function","name":"unpause","inputs":[],"outputs":[],"stateMutability":"nonpayable"},{"type":"function","name":"withdrawPlatformFees","inputs":[{"name":"to","type":"address","internalType":"address"}],"outputs":[],"stateMutability":"nonpayable"},{"type":"event","name":"ChallengeCreated","inputs":[{"name":"challengeId","type":"bytes32","indexed":true,"internalType":"bytes32"},{"name":"entryFee","type":"uint256","indexed":false,"internalType":"uint256"},{"name":"maxPool","type":"uint256","indexed":false,"internalType":"uint256"},{"name":"endTime","type":"uint256","indexed":false,"internalType":"uint256"}],"anonymous":false},{"type":"event","name":"ChallengeFinalized","inputs":[{"name":"challengeId","type":"bytes32","indexed":true,"internalType":"bytes32"},{"name":"totalPool","type":"uint256","indexed":false,"internalType":"uint256"},{"name":"platformFee","type":"uint256","indexed":false,"internalType":"uint256"}],"anonymous":false},{"type":"event","name":"ChallengeRefunded","inputs":[{"name":"challengeId","type":"bytes32","indexed":true,"internalType":"bytes32"},{"name":"refundCount","type":"uint256","indexed":false,"internalType":"uint256"}],"anonymous":false},{"type":"event","name":"CompositeCommitted","inputs":[{"name":"entryId","type":"bytes32","indexed":true,"internalType":"bytes32"},{"name":"challengeId","type":"bytes32","indexed":true,"internalType":"bytes32"},{"name":"commitment","type":"bytes32","indexed":false,"internalType":"bytes32"}],"anonymous":false},{"type":"event","name":"CompositeRevealed","inputs":[{"name":"entryId","type":"bytes32","indexed":true,"internalType":"bytes32"},{"name":"compositeScore","type":"uint8","indexed":false,"internalType":"uint8"}],"anonymous":false},{"type":"event","name":"EntryCancelled","inputs":[{"name":"challengeId","type":"bytes32","indexed":true,"internalType":"bytes32"},{"name":"entryId","type":"bytes32","indexed":true,"internalType":"bytes32"},{"name":"payer","type":"address","indexed":true,"internalType":"address"},{"name":"refund","type":"uint256","indexed":false,"internalType":"uint256"}],"anonymous":false},{"type":"event","name":"EntryPaid","inputs":[{"name":"challengeId","type":"bytes32","indexed":true,"internalType":"bytes32"},{"name":"entryId","type":"bytes32","indexed":true,"internalType":"bytes32"},{"name":"payer","type":"address","indexed":true,"internalType":"address"},{"name":"amount","type":"uint256","indexed":false,"internalType":"uint256"}],"anonymous":false},{"type":"event","name":"OracleTransferred","inputs":[{"name":"previousOracle","type":"address","indexed":true,"internalType":"address"},{"name":"newOracle","type":"address","indexed":true,"internalType":"address"}],"anonymous":false},{"type":"event","name":"OwnerTransferred","inputs":[{"name":"previousOwner","type":"address","indexed":true,"internalType":"address"},{"name":"newOwner","type":"address","indexed":true,"internalType":"address"}],"anonymous":false},{"type":"event","name":"Paused","inputs":[{"name":"by","type":"address","indexed":true,"internalType":"address"}],"anonymous":false},{"type":"event","name":"PlatformFeeWithdrawn","inputs":[{"name":"to","type":"address","indexed":true,"internalType":"address"},{"name":"amount","type":"uint256","indexed":false,"internalType":"uint256"}],"anonymous":false},{"type":"event","name":"PrizeClaimed","inputs":[{"name":"challengeId","type":"bytes32","indexed":true,"internalType":"bytes32"},{"name":"entryId","type":"bytes32","indexed":true,"internalType":"bytes32"},{"name":"winner","type":"address","indexed":true,"internalType":"address"},{"name":"amount","type":"uint256","indexed":false,"internalType":"uint256"}],"anonymous":false},{"type":"event","name":"Unpaused","inputs":[{"name":"by","type":"address","indexed":true,"internalType":"address"}],"anonymous":false},{"type":"error","name":"AlreadyClaimed","inputs":[]},{"type":"error","name":"AlreadyCommitted","inputs":[]},{"type":"error","name":"AlreadyPaid","inputs":[]},{"type":"error","name":"AlreadyRevealed","inputs":[]},{"type":"error","name":"ChallengeAlreadyExists","inputs":[]},{"type":"error","name":"ChallengeExpired","inputs":[]},{"type":"error","name":"ChallengeNotExpired","inputs":[]},{"type":"error","name":"ChallengeNotFinalized","inputs":[]},{"type":"error","name":"ChallengeNotFound","inputs":[]},{"type":"error","name":"ChallengeNotOpen","inputs":[]},{"type":"error","name":"ChallengeNotScoring","inputs":[]},{"type":"error","name":"EntryNotFound","inputs":[]},{"type":"error","name":"InsufficientEntries","inputs":[]},{"type":"error","name":"InvalidPayoutConfig","inputs":[]},{"type":"error","name":"InvalidReveal","inputs":[]},{"type":"error","name":"InvalidScore","inputs":[]},{"type":"error","name":"NotCommitted","inputs":[]},{"type":"error","name":"NotRefundable","inputs":[]},{"type":"error","name":"OnlyOracle","inputs":[]},{"type":"error","name":"OnlyOwner","inputs":[]},{"type":"error","name":"Paused_","inputs":[]},{"type":"error","name":"PoolCapExceeded","inputs":[]},{"type":"error","name":"TransferFailed","inputs":[]},{"type":"error","name":"ZeroAddress","inputs":[]}],"bytecode":{"object":"0x6080604052600160075534801562000015575f80fd5b50604051620026ff380380620026ff8339810160408190526200003891620000bb565b6001600160a01b038116620000605760405163d92e233d60e01b815260040160405180910390fd5b5f80546001600160a01b0383166001600160a01b0319918216811783556001805490921681179091556040519091907f9b0948b943e24ff3413cb400b2eeae4337138739aaf31759dc6e813e8076fbc3908290a350620000ea565b5f60208284031215620000cc575f80fd5b81516001600160a01b0381168114620000e3575f80fd5b9392505050565b61260780620000f85f395ff3fe608060405234801561000f575f80fd5b50600436106101e7575f3560e01c80638456cb5911610109578063ae706b0f1161009e578063e1a452181161006e578063e1a45218146106b4578063e3c98ba0146106bd578063e7326806146106c6578063ec3889b5146106d9575f80fd5b8063ae706b0f14610610578063b0fc944014610623578063c1e69b6614610636578063d926de27146106a1575f80fd5b80638f866b85116100d95780638f866b85146104a857806394692429146104bb5780639a5e4eb4146104ce5780639f230cb9146105fd575f80fd5b80638456cb591461043457806387f0f22e1461043c57806389a302711461047a5780638da5cb5b14610495575f80fd5b80634fb2e45d1161017f57806371de2ffc1161014f57806371de2ffc146103c457806371fce873146103d75780637dc0d1d0146103f75780637f205caa14610421575f80fd5b80634fb2e45d14610379578063520c21be1461038c578063539aa77f146103975780635c975abb146103a0575f80fd5b80634781aae9116101ba5780634781aae914610321578063491a8048146103345780634b965400146103475780634dc59dfd14610366575f80fd5b806323967789146101eb578063267b6922146102065780633f4ba83a146102f7578063458d2bf114610301575b5f80fd5b6101f3600281565b6040519081526020015b60405180910390f35b61028b610214366004612136565b600460208190525f918252604090912080546001820154600283015460038401549390940154919390926001600160a01b0382169260ff600160a01b8404811693600160a81b900481169291808216916101008204811691620100008104821691630100000082048116916401000000009004168b565b604080519b8c5260208c019a909a526001600160a01b03909816988a019890985260ff95861660608a015294909316608088015260a0870191909152151560c0860152151560e085015215156101008401529015156101208301521515610140820152610160016101fd565b6102ff6106ec565b005b61031461030f366004612136565b610750565b6040516101fd9190612181565b6102ff61032f366004612216565b610868565b6102ff610342366004612136565b610b69565b6101f3610355366004612136565b60066020525f908152604090205481565b6102ff61037436600461228e565b610beb565b6102ff6103873660046122c8565b610d96565b6101f3631dcd650081565b6101f36101f481565b6001546103b490600160a01b900460ff1681565b60405190151581526020016101fd565b6102ff6103d2366004612136565b610e43565b6103ea6103e5366004612136565b6110aa565b6040516101fd91906122f5565b5f54610409906001600160a01b031681565b6040516001600160a01b0390911681526020016101fd565b6102ff61042f366004612136565b611109565b6102ff6111fd565b61046861044a366004612136565b5f90815260046020526040902060020154600160a01b900460ff1690565b60405160ff90911681526020016101fd565b61040973833589fcd6edb6e08f4c7c32d4f71b54bda0291381565b600154610409906001600160a01b031681565b6102ff6104b6366004612136565b611267565b6102ff6104c9366004612338565b611313565b6105f06104dc366004612136565b60408051610160810182525f80825260208201819052918101829052606081018290526080810182905260a0810182905260c0810182905260e0810182905261010081018290526101208101829052610140810191909152505f908152600460208181526040928390208351610160810185528154815260018201549281019290925260028101546001600160a01b0381169483019490945260ff600160a01b850481166060840152600160a81b90940484166080830152600381015460a083015290910154808316151560c08301526101008082048416151560e0840152620100008204841615159083015263010000008104831615156101208301526401000000009004909116151561014082015290565b6040516101fd919061237a565b6102ff61060b366004612435565b6115a3565b6102ff61061e366004612455565b611a26565b6102ff610631366004612136565b611b29565b61068e610644366004612136565b600360208190525f91825260409091208054600182015460028301549383015460059093015491939092909160ff8082169163ffffffff61010082041691600160281b9091041687565b6040516101fd979695949392919061247e565b6101f36106af366004612435565b611de1565b6101f361271081565b6101f360025481565b6102ff6106d43660046122c8565b611e0c565b6102ff6106e73660046122c8565b611eb6565b6001546001600160a01b0316331461071757604051635fc483c560e01b815260040160405180910390fd5b6001805460ff60a01b1916905560405133907f5db9ee0a495bf2e6ff9c91a7834c1ba4fdd244a5e8aa4e537bd38aeae4b073aa905f90a2565b61075861202a565b60035f8381526020019081526020015f20604051806101000160405290815f8201548152602001600182015481526020016002820154815260200160038201548152602001600482016003806020026040519081016040528092919082600380156107ff576020028201915f905b82829054906101000a900461ffff1661ffff16815260200190600201906020826001010492830192600103820291508084116107c65790505b5050509183525050600582015460209091019060ff1660038111156108265761082661214d565b60038111156108375761083761214d565b815260059190910154610100810463ffffffff166020830152600160281b900460ff16151560409091015292915050565b5f546001600160a01b03163314610892576040516380fee10560e01b815260040160405180910390fd5b6007546001146108bd5760405162461bcd60e51b81526004016108b4906124c7565b60405180910390fd5b60026007555f8381526003602052604090206005810154600160281b900460ff166108fb57604051632b8829ff60e21b815260040160405180910390fd5b6001600582015460ff1660038111156109165761091661214d565b1461093457604051637174f32360e11b815260040160405180910390fd5b600282101561095657604051636d3e62f360e11b815260040160405180910390fd5b5f5b828110156109f1575f60045f868685818110610976576109766124ea565b9050602002013581526020019081526020015f2090508060040160049054906101000a900460ff16156109bc57604051631556136560e01b815260040160405180910390fd5b60048101546301000000900460ff166109e857604051631556136560e01b815260040160405180910390fd5b50600101610958565b505f6127106101f48360020154610a089190612512565b610a12919061252f565b90505f818360020154610a25919061254e565b90508160025f828254610a389190612561565b909155505f905060038510610a4e576003610a50565b845b90505f5b81811015610b0a575f60045f898985818110610a7257610a726124ea565b9050602002013581526020019081526020015f209050816001610a959190612561565b8160020160156101000a81548160ff021916908360ff160217905550612710866004018360038110610ac957610ac96124ea565b601091828204019190066002029054906101000a900461ffff1661ffff1685610af29190612512565b610afc919061252f565b600390910155600101610a54565b5060058401805460ff19166002908117909155840154604080519182526020820185905288917f5fa00da99d9a1474c457e48f843dfda131857506ff4e8e66decfe6281f59c17e910160405180910390a2505060016007555050505050565b5f546001600160a01b03163314610b93576040516380fee10560e01b815260040160405180910390fd5b5f818152600460208190526040909120015460ff16610bc557604051635d47e14960e11b815260040160405180910390fd5b5f90815260046020819052604090912001805464ff000000001916640100000000179055565b5f546001600160a01b03163314610c15576040516380fee10560e01b815260040160405180910390fd5b5f838152600460208190526040909120015462010000900460ff16610c4d5760405163205e472d60e21b815260040160405180910390fd5b5f83815260046020819052604090912001546301000000900460ff1615610c875760405163a89ac15160e01b815260040160405180910390fd5b60648260ff161115610cac57604051631556136560e01b815260040160405180910390fd5b60408051602080820186905260f885901b6001600160f81b03191682840152604180830185905283518084039091018152606190920183528151918101919091205f8681526006909252919020548114610d1957604051639ea6d12760e01b815260040160405180910390fd5b5f8481526004602081815260409283902060028101805460ff8916600160a01b810260ff60a01b19909216919091179091559201805463ff00000019166301000000179055915190815285917fd1a522d7c6fc4d42c10b9db4047e6c5b6a1a7a9b1fb81bfa2ce0714bb8f9c37f910160405180910390a250505050565b6001546001600160a01b03163314610dc157604051635fc483c560e01b815260040160405180910390fd5b6001600160a01b038116610de85760405163d92e233d60e01b815260040160405180910390fd5b6001546040516001600160a01b038084169216907f8934ce4adea8d9ce0d714d2c22b86790e41b7731c84b926fbbdc1d40ff6533c9905f90a3600180546001600160a01b0319166001600160a01b0392909216919091179055565b600754600114610e655760405162461bcd60e51b81526004016108b4906124c7565b6002600755600154600160a01b900460ff1615610e955760405163d4bd01c560e01b815260040160405180910390fd5b5f8181526004602081905260409091209081015460ff16610ec957604051635d47e14960e11b815260040160405180910390fd5b6004810154610100900460ff1615610ef457604051630c8d9eab60e31b815260040160405180910390fd5b60018101545f90815260036020819052604090912090600582015460ff166003811115610f2357610f2361214d565b14610f4157604051631ba168fb60e11b815260040160405180910390fd5b60028201546001600160a01b03163314610f8f5760405162461bcd60e51b815260206004820152600f60248201526e2737ba1032b73a393c9037bbb732b960891b60448201526064016108b4565b6004828101805461ff0019166101001790556002830154825460405163a9059cbb60e01b81526001600160a01b039092169282019290925260248101919091525f9073833589fcd6edb6e08f4c7c32d4f71b54bda029139063a9059cbb906044016020604051808303815f875af115801561100c573d5f803e3d5ffd5b505050506040513d601f19601f820116820180604052508101906110309190612574565b905080611050576040516312171d8360e31b815260040160405180910390fd5b6002830154600184015483546040519081526001600160a01b03909216918691907fdf480dd1699dfff7f6f3cbacec281230fd7a18331b68d43b06bdd65124a6d675906020015b60405180910390a4505060016007555050565b5f818152600560209081526040918290208054835181840281018401909452808452606093928301828280156110fd57602002820191905f5260205f20905b8154815260200190600101908083116110e9575b50505050509050919050565b5f546001600160a01b03163314611133576040516380fee10560e01b815260040160405180910390fd5b5f8181526003602052604090206005810154600160281b900460ff1661116c57604051632b8829ff60e21b815260040160405180910390fd5b6002600582015460ff1660038111156111875761118761214d565b036111a557604051631ba168fb60e11b815260040160405180910390fd5b60058101805460ff19166003179081905560405163ffffffff61010090920491909116815282907feeed76982ef8882be3e96b3b73af34420261e398b6c58970a7984d711dcf38e09060200160405180910390a25050565b6001546001600160a01b0316331461122857604051635fc483c560e01b815260040160405180910390fd5b6001805460ff60a01b1916600160a01b17905560405133907f62e78cea01bee320cd4e420270b5ea74000d11b0c9f74754ebdbfc544b05a258905f90a2565b5f546001600160a01b03163314611291576040516380fee10560e01b815260040160405180910390fd5b5f8181526003602052604090206005810154600160281b900460ff166112ca57604051632b8829ff60e21b815260040160405180910390fd5b5f600582015460ff1660038111156112e4576112e461214d565b14611302576040516323077b5160e21b815260040160405180910390fd5b600501805460ff1916600117905550565b5f546001600160a01b0316331461133d576040516380fee10560e01b815260040160405180910390fd5b600154600160a01b900460ff16156113685760405163d4bd01c560e01b815260040160405180910390fd5b5f84815260036020526040902060050154600160281b900460ff16156113a157604051634450435760e01b815260040160405180910390fd5b4282116113c15760405163f06506c560e01b815260040160405180910390fd5b5f6113d26060830160408401612593565b61ffff166113e66040840160208501612593565b61ffff166113f76020850185612593565b61ffff166114059190612561565b61140f9190612561565b9050612710811461143357604051632a50db2f60e11b815260040160405180910390fd5b5f631dcd650090506040518061010001604052808681526020018281526020015f81526020018581526020018460038060200260405190810160405280929190826003602002808284375f920182905250928452505060208083018290526040808401839052600160609485018190528b84526003808452938290208651815592860151908301558401516002820155918301518282015560808301516114df9160048401919061206f565b5060a082015160058201805460ff191660018360038111156115035761150361214d565b021790555060c08201516005909101805460e0909301511515600160281b0265ff00000000001963ffffffff909316610100029290921665ffffffffff00199093169290921717905560405186907f85d97d0c814e6770bd6d51f47f494293de2913df0c24cc23e92a5bcd03e0463690611593908890859089909283526020830191909152604082015260600190565b60405180910390a2505050505050565b600154600160a01b900460ff16156115ce5760405163d4bd01c560e01b815260040160405180910390fd5b6007546001146115f05760405162461bcd60e51b81526004016108b4906124c7565b60026007555f8281526003602052604090206005810154600160281b900460ff1661162e57604051632b8829ff60e21b815260040160405180910390fd5b5f600582015460ff1660038111156116485761164861214d565b14611666576040516323077b5160e21b815260040160405180910390fd5b8060030154421061168a5760405163f06506c560e01b815260040160405180910390fd5b5f828152600460208190526040909120015460ff16156116bd57604051630d70a0e360e41b815260040160405180910390fd5b6001810154815460028301546116d39190612561565b11156116f25760405163053be18f60e21b815260040160405180910390fd5b80546002820180545f90611707908490612561565b909155505060058101805460019190829061172e908290610100900463ffffffff166125b4565b92506101000a81548163ffffffff021916908363ffffffff160217905550604051806101600160405280838152602001848152602001336001600160a01b031681526020015f60ff1681526020015f60ff1681526020015f81526020016001151581526020015f151581526020015f151581526020015f151581526020015f151581525060045f8481526020019081526020015f205f820151815f0155602082015181600101556040820151816002015f6101000a8154816001600160a01b0302191690836001600160a01b0316021790555060608201518160020160146101000a81548160ff021916908360ff16021790555060808201518160020160156101000a81548160ff021916908360ff16021790555060a0820151816003015560c0820151816004015f6101000a81548160ff02191690831515021790555060e08201518160040160016101000a81548160ff0219169083151502179055506101008201518160040160026101000a81548160ff0219169083151502179055506101208201518160040160036101000a81548160ff0219169083151502179055506101408201518160040160046101000a81548160ff02191690831515021790555090505060055f8481526020019081526020015f2082908060018154018082558091505060019003905f5260205f20015f90919091909150555f73833589fcd6edb6e08f4c7c32d4f71b54bda029136001600160a01b03166323b872dd3330855f01546040518463ffffffff1660e01b815260040161198e939291906001600160a01b039384168152919092166020820152604081019190915260600190565b6020604051808303815f875af11580156119aa573d5f803e3d5ffd5b505050506040513d601f19601f820116820180604052508101906119ce9190612574565b9050806119ee576040516312171d8360e31b815260040160405180910390fd5b81546040519081523390849086907fda73e1424a9ee2f35995845542e11710fa665352f6c01c3cee397df1f220fa5a90602001611097565b5f546001600160a01b03163314611a50576040516380fee10560e01b815260040160405180910390fd5b5f838152600460208190526040909120015460ff16611a8257604051635d47e14960e11b815260040160405180910390fd5b5f838152600460208190526040909120015462010000900460ff1615611abb576040516317fd8aab60e31b815260040160405180910390fd5b5f8381526006602090815260408083208490556004918290529182902001805462ff000019166201000017905551829084907f70458f7a910b4928cdc1591c41fd42d3534fcc455757b335374a0376a17218ad90611b1c9085815260200190565b60405180910390a3505050565b600754600114611b4b5760405162461bcd60e51b81526004016108b4906124c7565b6002600755600154600160a01b900460ff1615611b7b5760405163d4bd01c560e01b815260040160405180910390fd5b5f8181526004602081905260409091209081015460ff16611baf57604051635d47e14960e11b815260040160405180910390fd5b6004810154610100900460ff1615611bda57604051630c8d9eab60e31b815260040160405180910390fd5b80600301545f03611bfe57604051635d47e14960e11b815260040160405180910390fd5b6004810154640100000000900460ff1615611c2c57604051635d47e14960e11b815260040160405180910390fd5b60018101545f9081526003602052604090206002600582015460ff166003811115611c5957611c5961214d565b14611c775760405163161ae9df60e11b815260040160405180910390fd5b60028201546001600160a01b03163314611cc55760405162461bcd60e51b815260206004820152600f60248201526e2737ba1032b73a393c9037bbb732b960891b60448201526064016108b4565b6004828101805461ff0019166101001790556003830154600284015460405163a9059cbb60e01b81526001600160a01b039091169281019290925260248201819052905f9073833589fcd6edb6e08f4c7c32d4f71b54bda029139063a9059cbb906044016020604051808303815f875af1158015611d45573d5f803e3d5ffd5b505050506040513d601f19601f82011682018060405250810190611d699190612574565b905080611d89576040516312171d8360e31b815260040160405180910390fd5b600284015460018501546040518481526001600160a01b03909216918791907f687cdb5f90aa5fb48aa151e04ac3daa7a4ef02c7d4da6db5e3badb76da7d82849060200160405180910390a450506001600755505050565b6005602052815f5260405f208181548110611dfa575f80fd5b905f5260205f20015f91509150505481565b5f546001600160a01b03163314611e36576040516380fee10560e01b815260040160405180910390fd5b6001600160a01b038116611e5d5760405163d92e233d60e01b815260040160405180910390fd5b5f80546040516001600160a01b03808516939216917f9b0948b943e24ff3413cb400b2eeae4337138739aaf31759dc6e813e8076fbc391a35f80546001600160a01b0319166001600160a01b0392909216919091179055565b6001546001600160a01b03163314611ee157604051635fc483c560e01b815260040160405180910390fd5b600754600114611f035760405162461bcd60e51b81526004016108b4906124c7565b60026007556001600160a01b038116611f2f5760405163d92e233d60e01b815260040160405180910390fd5b600280545f9182905560405163a9059cbb60e01b81526001600160a01b03841660048201526024810182905290919073833589fcd6edb6e08f4c7c32d4f71b54bda029139063a9059cbb906044016020604051808303815f875af1158015611f99573d5f803e3d5ffd5b505050506040513d601f19601f82011682018060405250810190611fbd9190612574565b905080611fdd576040516312171d8360e31b815260040160405180910390fd5b826001600160a01b03167fd116803f8b8538a601b6096e8d1196e3ce3ef43dec6dbbe4cd4e5c69dd171d8b8360405161201891815260200190565b60405180910390a25050600160075550565b6040518061010001604052805f81526020015f81526020015f81526020015f8152602001612056612104565b81526020015f81525f6020820181905260409091015290565b6001830191839082156120f4579160200282015f5b838211156120c457835183826101000a81548161ffff021916908361ffff1602179055509260200192600201602081600101049283019260010302612084565b80156120f25782816101000a81549061ffff02191690556002016020816001010492830192600103026120c4565b505b50612100929150612122565b5090565b60405180606001604052806003906020820280368337509192915050565b5b80821115612100575f8155600101612123565b5f60208284031215612146575f80fd5b5035919050565b634e487b7160e01b5f52602160045260245ffd5b6004811061217d57634e487b7160e01b5f52602160045260245ffd5b9052565b5f6101408201905082518252602080840151602084015260408401516040840152606084015160608401526080840151608084015f5b60038110156121d857825161ffff16825291830191908301906001016121b7565b5050505060a08301516121ee60e0840182612161565b5060c083015163ffffffff1661010083015260e08301518015156101208401525b5092915050565b5f805f60408486031215612228575f80fd5b83359250602084013567ffffffffffffffff80821115612246575f80fd5b818601915086601f830112612259575f80fd5b813581811115612267575f80fd5b8760208260051b850101111561227b575f80fd5b6020830194508093505050509250925092565b5f805f606084860312156122a0575f80fd5b83359250602084013560ff811681146122b7575f80fd5b929592945050506040919091013590565b5f602082840312156122d8575f80fd5b81356001600160a01b03811681146122ee575f80fd5b9392505050565b602080825282518282018190525f9190848201906040850190845b8181101561232c57835183529284019291840191600101612310565b50909695505050505050565b5f805f8060c0858703121561234b575f80fd5b8435935060208501359250604085013591508560c08601111561236c575f80fd5b509194909350909160600190565b5f61016082019050825182526020830151602083015260408301516123aa60408401826001600160a01b03169052565b5060608301516123bf606084018260ff169052565b5060808301516123d4608084018260ff169052565b5060a083015160a083015260c08301516123f260c084018215159052565b5060e083015161240660e084018215159052565b506101008381015115159083015261012080840151151590830152610140928301511515929091019190915290565b5f8060408385031215612446575f80fd5b50508035926020909101359150565b5f805f60608486031215612467575f80fd5b505081359360208301359350604090920135919050565b5f60e0820190508882528760208301528660408301528560608301526124a76080830186612161565b63ffffffff841660a083015282151560c083015298975050505050505050565b6020808252600990820152681499595b9d1c985b9d60ba1b604082015260600190565b634e487b7160e01b5f52603260045260245ffd5b634e487b7160e01b5f52601160045260245ffd5b8082028115828204841417612529576125296124fe565b92915050565b5f8261254957634e487b7160e01b5f52601260045260245ffd5b500490565b81810381811115612529576125296124fe565b80820180821115612529576125296124fe565b5f60208284031215612584575f80fd5b815180151581146122ee575f80fd5b5f602082840312156125a3575f80fd5b813561ffff811681146122ee575f80fd5b63ffffffff81811683821601908082111561220f5761220f6124fe56fea2646970667358221220bb156006476f355bf9df80c2edc381c59c5b2b76477f168cf26402b2f711c3f664736f6c63430008180033","linkReferences":{}},"methodIdentifiers":{"BPS_DENOMINATOR()":"e1a45218","MAX_POOL_USDC()":"520c21be","MIN_ENTRIES()":"23967789","PLATFORM_FEE_BPS()":"539aa77f","USDC()":"89a30271","cancelChallenge(bytes32)":"7f205caa","challengeEntries(bytes32,uint256)":"d926de27","challenges(bytes32)":"c1e69b66","claimPrize(bytes32)":"b0fc9440","claimRefund(bytes32)":"71de2ffc","closeEntries(bytes32)":"8f866b85","commitComposite(bytes32,bytes32,bytes32)":"ae706b0f","compositeCommitments(bytes32)":"4b965400","createChallenge(bytes32,uint256,uint256,uint16[3])":"94692429","disqualifyEntry(bytes32)":"491a8048","entries(bytes32)":"267b6922","finalizeChallenge(bytes32,bytes32[])":"4781aae9","getChallenge(bytes32)":"458d2bf1","getChallengeEntries(bytes32)":"71fce873","getCompositeScore(bytes32)":"87f0f22e","getEntry(bytes32)":"9a5e4eb4","oracle()":"7dc0d1d0","owner()":"8da5cb5b","pause()":"8456cb59","paused()":"5c975abb","payEntry(bytes32,bytes32)":"9f230cb9","platformFeeBalance()":"e3c98ba0","revealComposite(bytes32,uint8,bytes32)":"4dc59dfd","transferOracle(address)":"e7326806","transferOwner(address)":"4fb2e45d","unpause()":"3f4ba83a","withdrawPlatformFees(address)":"ec3889b5"},"id":19}