{"abi":[{"type":"constructor","inputs":[{"name":"_oracle","type":"address","internalType":"address"}],"stateMutability":"nonpayable"},{"type":"function","name":"commit","inputs":[{"name":"entryId","type":"bytes32","internalType":"bytes32"},{"name":"provider","type":"string","internalType":"string"},{"name":"commitment","type":"bytes32","internalType":"bytes32"}],"outputs":[],"stateMutability":"nonpayable"},{"type":"function","name":"commitTimestamps","inputs":[{"name":"","type":"bytes32","internalType":"bytes32"},{"name":"","type":"string","internalType":"string"}],"outputs":[{"name":"","type":"uint256","internalType":"uint256"}],"stateMutability":"view"},{"type":"function","name":"commitments","inputs":[{"name":"","type":"bytes32","internalType":"bytes32"},{"name":"","type":"string","internalType":"string"}],"outputs":[{"name":"","type":"bytes32","internalType":"bytes32"}],"stateMutability":"view"},{"type":"function","name":"computeCommitment","inputs":[{"name":"entryId","type":"bytes32","internalType":"bytes32"},{"name":"provider","type":"string","internalType":"string"},{"name":"score","type":"uint8","internalType":"uint8"},{"name":"salt","type":"bytes32","internalType":"bytes32"}],"outputs":[{"name":"","type":"bytes32","internalType":"bytes32"}],"stateMutability":"pure"},{"type":"function","name":"getProviderStatus","inputs":[{"name":"entryId","type":"bytes32","internalType":"bytes32"},{"name":"provider","type":"string","internalType":"string"}],"outputs":[{"name":"committed","type":"bool","internalType":"bool"},{"name":"revealed","type":"bool","internalType":"bool"},{"name":"score","type":"uint8","internalType":"uint8"},{"name":"committedAt","type":"uint256","internalType":"uint256"},{"name":"revealedAt","type":"uint256","internalType":"uint256"}],"stateMutability":"view"},{"type":"function","name":"getReveals","inputs":[{"name":"entryId","type":"bytes32","internalType":"bytes32"}],"outputs":[{"name":"claude","type":"uint8","internalType":"uint8"},{"name":"gpt4o","type":"uint8","internalType":"uint8"},{"name":"gemini","type":"uint8","internalType":"uint8"},{"name":"allRevealed","type":"bool","internalType":"bool"}],"stateMutability":"view"},{"type":"function","name":"isRevealed","inputs":[{"name":"","type":"bytes32","internalType":"bytes32"},{"name":"","type":"string","internalType":"string"}],"outputs":[{"name":"","type":"bool","internalType":"bool"}],"stateMutability":"view"},{"type":"function","name":"oracle","inputs":[],"outputs":[{"name":"","type":"address","internalType":"address"}],"stateMutability":"view"},{"type":"function","name":"reveal","inputs":[{"name":"entryId","type":"bytes32","internalType":"bytes32"},{"name":"provider","type":"string","internalType":"string"},{"name":"score","type":"uint8","internalType":"uint8"},{"name":"salt","type":"bytes32","internalType":"bytes32"}],"outputs":[],"stateMutability":"nonpayable"},{"type":"function","name":"revealTimestamps","inputs":[{"name":"","type":"bytes32","internalType":"bytes32"},{"name":"","type":"string","internalType":"string"}],"outputs":[{"name":"","type":"uint256","internalType":"uint256"}],"stateMutability":"view"},{"type":"function","name":"reveals","inputs":[{"name":"","type":"bytes32","internalType":"bytes32"},{"name":"","type":"string","internalType":"string"}],"outputs":[{"name":"","type":"uint8","internalType":"uint8"}],"stateMutability":"view"},{"type":"function","name":"transferOracle","inputs":[{"name":"newOracle","type":"address","internalType":"address"}],"outputs":[],"stateMutability":"nonpayable"},{"type":"event","name":"Committed","inputs":[{"name":"entryId","type":"bytes32","indexed":true,"internalType":"bytes32"},{"name":"provider","type":"string","indexed":false,"internalType":"string"},{"name":"commitment","type":"bytes32","indexed":false,"internalType":"bytes32"},{"name":"timestamp","type":"uint256","indexed":false,"internalType":"uint256"}],"anonymous":false},{"type":"event","name":"OracleTransferred","inputs":[{"name":"previousOracle","type":"address","indexed":true,"internalType":"address"},{"name":"newOracle","type":"address","indexed":true,"internalType":"address"}],"anonymous":false},{"type":"event","name":"Revealed","inputs":[{"name":"entryId","type":"bytes32","indexed":true,"internalType":"bytes32"},{"name":"provider","type":"string","indexed":false,"internalType":"string"},{"name":"score","type":"uint8","indexed":false,"internalType":"uint8"},{"name":"timestamp","type":"uint256","indexed":false,"internalType":"uint256"}],"anonymous":false},{"type":"error","name":"AlreadyCommitted","inputs":[]},{"type":"error","name":"AlreadyRevealed","inputs":[]},{"type":"error","name":"InvalidProvider","inputs":[]},{"type":"error","name":"InvalidReveal","inputs":[]},{"type":"error","name":"InvalidScore","inputs":[]},{"type":"error","name":"NotCommitted","inputs":[]},{"type":"error","name":"OnlyOracle","inputs":[]},{"type":"error","name":"ZeroAddress","inputs":[]}],"bytecode":{"object":"0x608060405234801561000f575f80fd5b50604051610ee6380380610ee683398101604081905261002e9161011e565b6001600160a01b0381166100555760405163d92e233d60e01b815260040160405180910390fd5b5f80546001600160a01b0319166001600160a01b03831690811782556040805165636c6175646560d01b81526001600680830182905283519283900360269081018420805460ff19908116851790915564677074346f60d81b855260058501849052855194859003602501852080548216851790556567656d696e6960d01b855291840183905293519283900390930182208054909316179091559091907f9b0948b943e24ff3413cb400b2eeae4337138739aaf31759dc6e813e8076fbc3908290a35061014b565b5f6020828403121561012e575f80fd5b81516001600160a01b0381168114610144575f80fd5b9392505050565b610d8e806101585f395ff3fe608060405234801561000f575f80fd5b50600436106100b0575f3560e01c80637e644acb1161006e5780637e644acb146101e65780639aa36975146101f9578063bce0240114610247578063c30e91c01461028c578063cd1edf9b146102c7578063e732680614610302575f80fd5b8062f2b596146100b457806337f427cb146101095780634cab7183146101525780636d2e0e5b146101945780636ee48c0d146101a95780637dc0d1d0146101bc575b5f80fd5b6100f26100c2366004610a61565b600360209081525f9283526040909220815180830184018051928152908401929093019190912091525460ff1681565b60405160ff90911681526020015b60405180910390f35b610144610117366004610a61565b600660209081525f9283526040909220815180830184018051928152908401929093019190912091525481565b604051908152602001610100565b610165610160366004610b16565b610315565b604051610100949392919060ff9485168152928416602084015292166040820152901515606082015260800190565b6101a76101a2366004610b72565b610442565b005b6101446101b7366004610bc1565b6105a8565b5f546101ce906001600160a01b031681565b6040516001600160a01b039091168152602001610100565b6101a76101f4366004610bc1565b6105e3565b610237610207366004610a61565b600460209081525f9283526040909220815180830184018051928152908401929093019190912091525460ff1681565b6040519015158152602001610100565b61025a610255366004610c28565b610890565b604080519515158652931515602086015260ff909216928401929092526060830191909152608082015260a001610100565b61014461029a366004610a61565b600560209081525f9283526040909220815180830184018051928152908401929093019190912091525481565b6101446102d5366004610a61565b600260209081525f9283526040909220815180830184018051928152908401929093019190912091525481565b6101a7610310366004610c70565b6109a3565b5f818152600360208181526040808420815165636c6175646560d01b8082526006808301849052845160269381900384018120548a8a5288885264677074346f60d81b8252600582018690528651602592819003929092018220548b8b529888526567656d696e6960d01b82528183019590955285519081900384018120548a8a52600490975285892092815290810191909152925192839003019091205460ff918216949382169392821692911680156103fe57505f8581526004602052604090819020905164677074346f60d81b81526005019081526040519081900360200190205460ff165b801561043957505f858152600460205260409081902090516567656d696e6960d01b81526006019081526040519081900360200190205460ff165b90509193509193565b5f546001600160a01b0316331461046c576040516380fee10560e01b815260040160405180910390fd5b828260018282604051610480929190610c9d565b9081526040519081900360200190205460ff166104b057604051633b136dc160e11b815260040160405180910390fd5b5f8681526002602052604080822090516104cd9088908890610c9d565b908152602001604051809103902054146104fa576040516317fd8aab60e31b815260040160405180910390fd5b8260025f8881526020019081526020015f20868660405161051c929190610c9d565b9081526020016040518091039020819055504260055f8881526020019081526020015f208686604051610550929190610c9d565b908152602001604051809103902081905550857fbe1adbbbf4c1681034511e4ea7a4e5cdee2e1e745c97a53a05c5901d1aec88bc868686426040516105989493929190610cd4565b60405180910390a2505050505050565b5f85858585856040516020016105c2959493929190610cfa565b60405160208183030381529060405280519060200120905095945050505050565b5f546001600160a01b0316331461060d576040516380fee10560e01b815260040160405180910390fd5b838360018282604051610621929190610c9d565b9081526040519081900360200190205460ff1661065157604051633b136dc160e11b815260040160405180910390fd5b5f87815260026020526040808220905161066e9089908990610c9d565b9081526020016040518091039020540361069b5760405163205e472d60e21b815260040160405180910390fd5b5f878152600460205260409081902090516106b99088908890610c9d565b9081526040519081900360200190205460ff16156106ea5760405163a89ac15160e01b815260040160405180910390fd5b600a8460ff1610806106ff575060648460ff16115b1561071d57604051631556136560e01b815260040160405180910390fd5b5f8787878787604051602001610737959493929190610cfa565b60408051601f1981840301815282825280516020918201205f8c815260029092529190209092509061076c9089908990610c9d565b908152602001604051809103902054811461079a57604051639ea6d12760e01b815260040160405180910390fd5b8460035f8a81526020019081526020015f2088886040516107bc929190610c9d565b9081526040805160209281900383018120805460ff191660ff95909516949094179093555f8b8152600490925290206001916107fb908a908a90610c9d565b9081526040805160209281900383018120805460ff1916941515949094179093555f8b8152600690925290204291610836908a908a90610c9d565b908152602001604051809103902081905550877f1d32e6cf10ea24666f29ce7f6759aa578421b2e9d3237d5c27e5cc7bf6c6b5b78888884260405161087e9493929190610d2f565b60405180910390a25050505050505050565b5f805f805f805f1b60025f8a81526020019081526020015f2088886040516108b9929190610c9d565b9081526020016040518091039020541415945060045f8981526020019081526020015f2087876040516108ed929190610c9d565b908152604080519182900360209081018320545f8c8152600390925291902060ff9091169550906109219089908990610c9d565b908152604080519182900360209081018320545f8c8152600590925291902060ff9091169450906109559089908990610c9d565b908152602001604051809103902054915060065f8981526020019081526020015f208787604051610987929190610c9d565b9081526020016040518091039020549050939792965093509350565b5f546001600160a01b031633146109cd576040516380fee10560e01b815260040160405180910390fd5b6001600160a01b0381166109f45760405163d92e233d60e01b815260040160405180910390fd5b5f80546040516001600160a01b03808516939216917f9b0948b943e24ff3413cb400b2eeae4337138739aaf31759dc6e813e8076fbc391a35f80546001600160a01b0319166001600160a01b0392909216919091179055565b634e487b7160e01b5f52604160045260245ffd5b5f8060408385031215610a72575f80fd5b82359150602083013567ffffffffffffffff80821115610a90575f80fd5b818501915085601f830112610aa3575f80fd5b813581811115610ab557610ab5610a4d565b604051601f8201601f19908116603f01168101908382118183101715610add57610add610a4d565b81604052828152886020848701011115610af5575f80fd5b826020860160208301375f6020848301015280955050505050509250929050565b5f60208284031215610b26575f80fd5b5035919050565b5f8083601f840112610b3d575f80fd5b50813567ffffffffffffffff811115610b54575f80fd5b602083019150836020828501011115610b6b575f80fd5b9250929050565b5f805f8060608587031215610b85575f80fd5b84359350602085013567ffffffffffffffff811115610ba2575f80fd5b610bae87828801610b2d565b9598909750949560400135949350505050565b5f805f805f60808688031215610bd5575f80fd5b85359450602086013567ffffffffffffffff811115610bf2575f80fd5b610bfe88828901610b2d565b909550935050604086013560ff81168114610c17575f80fd5b949793965091946060013592915050565b5f805f60408486031215610c3a575f80fd5b83359250602084013567ffffffffffffffff811115610c57575f80fd5b610c6386828701610b2d565b9497909650939450505050565b5f60208284031215610c80575f80fd5b81356001600160a01b0381168114610c96575f80fd5b9392505050565b818382375f9101908152919050565b81835281816020850137505f828201602090810191909152601f909101601f19169091010190565b606081525f610ce7606083018688610cac565b6020830194909452506040015292915050565b8581528385602083013760f89290921b6001600160f81b03191660209390920192830191909152602182015260410192915050565b606081525f610d42606083018688610cac565b60ff94909416602083015250604001529291505056fea2646970667358221220ba1418df5f83abf69fc58a6520d671e1bd960479b56777b03bfaa12b55bd596264736f6c63430008180033","linkReferences":{}},"methodIdentifiers":{"commit(bytes32,string,bytes32)":"6d2e0e5b","commitTimestamps(bytes32,string)":"c30e91c0","commitments(bytes32,string)":"cd1edf9b","computeCommitment(bytes32,string,uint8,bytes32)":"6ee48c0d","getProviderStatus(bytes32,string)":"bce02401","getReveals(bytes32)":"4cab7183","isRevealed(bytes32,string)":"9aa36975","oracle()":"7dc0d1d0","reveal(bytes32,string,uint8,bytes32)":"7e644acb","revealTimestamps(bytes32,string)":"37f427cb","reveals(bytes32,string)":"00f2b596","transferOracle(address)":"e7326806"},"id":19}